{
  "_format": "hh-sol-artifact-1",
  "contractName": "ProfileImageNfts",
  "sourceName": "contracts/MintProfileImage.sol",
  "abi": [
    {
      "inputs": [],
      "stateMutability": "nonpayable",
      "type": "constructor"
    },
    {
      "anonymous": false,
      "inputs": [
        {
          "indexed": true,
          "internalType": "address",
          "name": "owner",
          "type": "address"
        },
        {
          "indexed": true,
          "internalType": "address",
          "name": "approved",
          "type": "address"
        },
        {
          "indexed": true,
          "internalType": "uint256",
          "name": "tokenId",
          "type": "uint256"
        }
      ],
      "name": "Approval",
      "type": "event"
    },
    {
      "anonymous": false,
      "inputs": [
        {
          "indexed": true,
          "internalType": "address",
          "name": "owner",
          "type": "address"
        },
        {
          "indexed": true,
          "internalType": "address",
          "name": "operator",
          "type": "address"
        },
        {
          "indexed": false,
          "internalType": "bool",
          "name": "approved",
          "type": "bool"
        }
      ],
      "name": "ApprovalForAll",
      "type": "event"
    },
    {
      "anonymous": false,
      "inputs": [
        {
          "indexed": true,
          "internalType": "address",
          "name": "previousOwner",
          "type": "address"
        },
        {
          "indexed": true,
          "internalType": "address",
          "name": "newOwner",
          "type": "address"
        }
      ],
      "name": "OwnershipTransferred",
      "type": "event"
    },
    {
      "anonymous": false,
      "inputs": [
        {
          "indexed": true,
          "internalType": "address",
          "name": "from",
          "type": "address"
        },
        {
          "indexed": true,
          "internalType": "address",
          "name": "to",
          "type": "address"
        },
        {
          "indexed": true,
          "internalType": "uint256",
          "name": "tokenId",
          "type": "uint256"
        }
      ],
      "name": "Transfer",
      "type": "event"
    },
    {
      "inputs": [
        {
          "internalType": "address",
          "name": "to",
          "type": "address"
        },
        {
          "internalType": "uint256",
          "name": "tokenId",
          "type": "uint256"
        }
      ],
      "name": "approve",
      "outputs": [],
      "stateMutability": "nonpayable",
      "type": "function"
    },
    {
      "inputs": [
        {
          "internalType": "address",
          "name": "owner",
          "type": "address"
        }
      ],
      "name": "balanceOf",
      "outputs": [
        {
          "internalType": "uint256",
          "name": "",
          "type": "uint256"
        }
      ],
      "stateMutability": "view",
      "type": "function"
    },
    {
      "inputs": [],
      "name": "contractAddress",
      "outputs": [
        {
          "internalType": "address",
          "name": "",
          "type": "address"
        }
      ],
      "stateMutability": "view",
      "type": "function"
    },
    {
      "inputs": [],
      "name": "getAlltoken",
      "outputs": [
        {
          "components": [
            {
              "internalType": "uint256",
              "name": "id",
              "type": "uint256"
            },
            {
              "internalType": "string",
              "name": "uri",
              "type": "string"
            },
            {
              "internalType": "string",
              "name": "space",
              "type": "string"
            }
          ],
          "internalType": "struct ProfileImageNfts.RenderToken[]",
          "name": "",
          "type": "tuple[]"
        }
      ],
      "stateMutability": "view",
      "type": "function"
    },
    {
      "inputs": [
        {
          "internalType": "uint256",
          "name": "tokenId",
          "type": "uint256"
        }
      ],
      "name": "getApproved",
      "outputs": [
        {
          "internalType": "address",
          "name": "",
          "type": "address"
        }
      ],
      "stateMutability": "view",
      "type": "function"
    },
    {
      "inputs": [
        {
          "internalType": "address",
          "name": "owner",
          "type": "address"
        },
        {
          "internalType": "address",
          "name": "operator",
          "type": "address"
        }
      ],
      "name": "isApprovedForAll",
      "outputs": [
        {
          "internalType": "bool",
          "name": "",
          "type": "bool"
        }
      ],
      "stateMutability": "view",
      "type": "function"
    },
    {
      "inputs": [
        {
          "internalType": "address",
          "name": "recipents",
          "type": "address"
        },
        {
          "internalType": "string",
          "name": "_uri",
          "type": "string"
        }
      ],
      "name": "mint",
      "outputs": [
        {
          "internalType": "uint256",
          "name": "",
          "type": "uint256"
        }
      ],
      "stateMutability": "nonpayable",
      "type": "function"
    },
    {
      "inputs": [],
      "name": "name",
      "outputs": [
        {
          "internalType": "string",
          "name": "",
          "type": "string"
        }
      ],
      "stateMutability": "view",
      "type": "function"
    },
    {
      "inputs": [],
      "name": "owner",
      "outputs": [
        {
          "internalType": "address",
          "name": "",
          "type": "address"
        }
      ],
      "stateMutability": "view",
      "type": "function"
    },
    {
      "inputs": [
        {
          "internalType": "uint256",
          "name": "tokenId",
          "type": "uint256"
        }
      ],
      "name": "ownerOf",
      "outputs": [
        {
          "internalType": "address",
          "name": "",
          "type": "address"
        }
      ],
      "stateMutability": "view",
      "type": "function"
    },
    {
      "inputs": [],
      "name": "renounceOwnership",
      "outputs": [],
      "stateMutability": "nonpayable",
      "type": "function"
    },
    {
      "inputs": [
        {
          "internalType": "address",
          "name": "from",
          "type": "address"
        },
        {
          "internalType": "address",
          "name": "to",
          "type": "address"
        },
        {
          "internalType": "uint256",
          "name": "tokenId",
          "type": "uint256"
        }
      ],
      "name": "safeTransferFrom",
      "outputs": [],
      "stateMutability": "nonpayable",
      "type": "function"
    },
    {
      "inputs": [
        {
          "internalType": "address",
          "name": "from",
          "type": "address"
        },
        {
          "internalType": "address",
          "name": "to",
          "type": "address"
        },
        {
          "internalType": "uint256",
          "name": "tokenId",
          "type": "uint256"
        },
        {
          "internalType": "bytes",
          "name": "_data",
          "type": "bytes"
        }
      ],
      "name": "safeTransferFrom",
      "outputs": [],
      "stateMutability": "nonpayable",
      "type": "function"
    },
    {
      "inputs": [
        {
          "internalType": "address",
          "name": "operator",
          "type": "address"
        },
        {
          "internalType": "bool",
          "name": "approved",
          "type": "bool"
        }
      ],
      "name": "setApprovalForAll",
      "outputs": [],
      "stateMutability": "nonpayable",
      "type": "function"
    },
    {
      "inputs": [
        {
          "internalType": "bytes4",
          "name": "interfaceId",
          "type": "bytes4"
        }
      ],
      "name": "supportsInterface",
      "outputs": [
        {
          "internalType": "bool",
          "name": "",
          "type": "bool"
        }
      ],
      "stateMutability": "view",
      "type": "function"
    },
    {
      "inputs": [],
      "name": "symbol",
      "outputs": [
        {
          "internalType": "string",
          "name": "",
          "type": "string"
        }
      ],
      "stateMutability": "view",
      "type": "function"
    },
    {
      "inputs": [
        {
          "internalType": "uint256",
          "name": "tokenId",
          "type": "uint256"
        }
      ],
      "name": "tokenURI",
      "outputs": [
        {
          "internalType": "string",
          "name": "",
          "type": "string"
        }
      ],
      "stateMutability": "view",
      "type": "function"
    },
    {
      "inputs": [
        {
          "internalType": "address",
          "name": "from",
          "type": "address"
        },
        {
          "internalType": "address",
          "name": "to",
          "type": "address"
        },
        {
          "internalType": "uint256",
          "name": "tokenId",
          "type": "uint256"
        }
      ],
      "name": "transferFrom",
      "outputs": [],
      "stateMutability": "nonpayable",
      "type": "function"
    },
    {
      "inputs": [
        {
          "internalType": "address",
          "name": "newOwner",
          "type": "address"
        }
      ],
      "name": "transferOwnership",
      "outputs": [],
      "stateMutability": "nonpayable",
      "type": "function"
    }
  ],
  "bytecode": "0x60806040523480156200001157600080fd5b506040518060400160405280601081526020017f50726f66696c65496d6167654e465473000000000000000000000000000000008152506040518060400160405280600381526020017f4452430000000000000000000000000000000000000000000000000000000000815250816000908051906020019062000096929190620001a6565b508060019080519060200190620000af929190620001a6565b505050620000d2620000c6620000d860201b60201c565b620000e060201b60201c565b620002bb565b600033905090565b6000600660009054906101000a900473ffffffffffffffffffffffffffffffffffffffff16905081600660006101000a81548173ffffffffffffffffffffffffffffffffffffffff021916908373ffffffffffffffffffffffffffffffffffffffff1602179055508173ffffffffffffffffffffffffffffffffffffffff168173ffffffffffffffffffffffffffffffffffffffff167f8be0079c531659141344cd1fd0a4f28419497f9722a3daafe3b4186f6b6457e060405160405180910390a35050565b828054620001b49062000256565b90600052602060002090601f016020900481019282620001d8576000855562000224565b82601f10620001f357805160ff191683800117855562000224565b8280016001018555821562000224579182015b828111156200022357825182559160200191906001019062000206565b5b50905062000233919062000237565b5090565b5b808211156200025257600081600090555060010162000238565b5090565b600060028204905060018216806200026f57607f821691505b602082108114156200028657620002856200028c565b5b50919050565b7f4e487b7100000000000000000000000000000000000000000000000000000000600052602260045260246000fd5b612dbe80620002cb6000396000f3fe608060405234801561001057600080fd5b50600436106101215760003560e01c8063715018a6116100ad578063c87b56dd11610071578063c87b56dd146102f4578063d0def52114610324578063e985e9c514610354578063f2fde38b14610384578063f6b4dfb4146103a057610121565b8063715018a6146102765780638da5cb5b1461028057806395d89b411461029e578063a22cb465146102bc578063b88d4fde146102d857610121565b806323b872dd116100f457806323b872dd146101c057806328904431146101dc57806342842e0e146101fa5780636352211e1461021657806370a082311461024657610121565b806301ffc9a71461012657806306fdde0314610156578063081812fc14610174578063095ea7b3146101a4575b600080fd5b610140600480360381019061013b9190611dee565b6103be565b60405161014d91906122e9565b60405180910390f35b61015e6104a0565b60405161016b9190612304565b60405180910390f35b61018e60048036038101906101899190611e40565b610532565b60405161019b9190612260565b60405180910390f35b6101be60048036038101906101b99190611db2565b6105b7565b005b6101da60048036038101906101d59190611c58565b6106cf565b005b6101e461072f565b6040516101f191906122c7565b60405180910390f35b610214600480360381019061020f9190611c58565b610894565b005b610230600480360381019061022b9190611e40565b6108b4565b60405161023d9190612260565b60405180910390f35b610260600480360381019061025b9190611bf3565b610966565b60405161026d9190612526565b60405180910390f35b61027e610a1e565b005b610288610aa6565b6040516102959190612260565b60405180910390f35b6102a6610ad0565b6040516102b39190612304565b60405180910390f35b6102d660048036038101906102d19190611d22565b610b62565b005b6102f260048036038101906102ed9190611ca7565b610b78565b005b61030e60048036038101906103099190611e40565b610bda565b60405161031b9190612304565b60405180910390f35b61033e60048036038101906103399190611d5e565b610ccd565b60405161034b9190612526565b60405180910390f35b61036e60048036038101906103699190611c1c565b610d04565b60405161037b91906122e9565b60405180910390f35b61039e60048036038101906103999190611bf3565b610d98565b005b6103a8610e90565b6040516103b59190612260565b60405180910390f35b60007f80ac58cd000000000000000000000000000000000000000000000000000000007bffffffffffffffffffffffffffffffffffffffffffffffffffffffff1916827bffffffffffffffffffffffffffffffffffffffffffffffffffffffff1916148061048957507f5b5e139f000000000000000000000000000000000000000000000000000000007bffffffffffffffffffffffffffffffffffffffffffffffffffffffff1916827bffffffffffffffffffffffffffffffffffffffffffffffffffffffff1916145b80610499575061049882610e9d565b5b9050919050565b6060600080546104af9061278a565b80601f01602080910402602001604051908101604052809291908181526020018280546104db9061278a565b80156105285780601f106104fd57610100808354040283529160200191610528565b820191906000526020600020905b81548152906001019060200180831161050b57829003601f168201915b5050505050905090565b600061053d82610f07565b61057c576040517f08c379a0000000000000000000000000000000000000000000000000000000008152600401610573906124a6565b60405180910390fd5b6004600083815260200190815260200160002060009054906101000a900473ffffffffffffffffffffffffffffffffffffffff169050919050565b60006105c2826108b4565b90508073ffffffffffffffffffffffffffffffffffffffff168373ffffffffffffffffffffffffffffffffffffffff161415610633576040517f08c379a000000000000000000000000000000000000000000000000000000000815260040161062a906124e6565b60405180910390fd5b8073ffffffffffffffffffffffffffffffffffffffff16610652610f73565b73ffffffffffffffffffffffffffffffffffffffff16148061068157506106808161067b610f73565b610d04565b5b6106c0576040517f08c379a00000000000000000000000000000000000000000000000000000000081526004016106b790612426565b60405180910390fd5b6106ca8383610f7b565b505050565b6106e06106da610f73565b82611034565b61071f576040517f08c379a000000000000000000000000000000000000000000000000000000000815260040161071690612506565b60405180910390fd5b61072a838383611112565b505050565b6060600061073d6007611379565b905060008167ffffffffffffffff811115610781577f4e487b7100000000000000000000000000000000000000000000000000000000600052604160045260246000fd5b6040519080825280602002602001820160405280156107ba57816020015b6107a76119f6565b81526020019060019003908161079f5790505b50905060005b82811161088b576107d081610f07565b156108785760006107e082610bda565b905060405180606001604052808381526020018281526020016040518060400160405280600181526020017f200000000000000000000000000000000000000000000000000000000000000081525081525083838151811061086b577f4e487b7100000000000000000000000000000000000000000000000000000000600052603260045260246000fd5b6020026020010181905250505b8080610883906127ed565b9150506107c0565b50809250505090565b6108af83838360405180602001604052806000815250610b78565b505050565b6000806002600084815260200190815260200160002060009054906101000a900473ffffffffffffffffffffffffffffffffffffffff169050600073ffffffffffffffffffffffffffffffffffffffff168173ffffffffffffffffffffffffffffffffffffffff16141561095d576040517f08c379a000000000000000000000000000000000000000000000000000000000815260040161095490612466565b60405180910390fd5b80915050919050565b60008073ffffffffffffffffffffffffffffffffffffffff168273ffffffffffffffffffffffffffffffffffffffff1614156109d7576040517f08c379a00000000000000000000000000000000000000000000000000000000081526004016109ce90612446565b60405180910390fd5b600360008373ffffffffffffffffffffffffffffffffffffffff1673ffffffffffffffffffffffffffffffffffffffff168152602001908152602001600020549050919050565b610a26610f73565b73ffffffffffffffffffffffffffffffffffffffff16610a44610aa6565b73ffffffffffffffffffffffffffffffffffffffff1614610a9a576040517f08c379a0000000000000000000000000000000000000000000000000000000008152600401610a91906124c6565b60405180910390fd5b610aa46000611387565b565b6000600660009054906101000a900473ffffffffffffffffffffffffffffffffffffffff16905090565b606060018054610adf9061278a565b80601f0160208091040260200160405190810160405280929190818152602001828054610b0b9061278a565b8015610b585780601f10610b2d57610100808354040283529160200191610b58565b820191906000526020600020905b815481529060010190602001808311610b3b57829003601f168201915b5050505050905090565b610b74610b6d610f73565b838361144d565b5050565b610b89610b83610f73565b83611034565b610bc8576040517f08c379a0000000000000000000000000000000000000000000000000000000008152600401610bbf90612506565b60405180910390fd5b610bd4848484846115ba565b50505050565b6060610be582610f07565b610c24576040517f08c379a0000000000000000000000000000000000000000000000000000000008152600401610c1b90612406565b60405180910390fd5b6000600860008481526020019081526020016000208054610c449061278a565b80601f0160208091040260200160405190810160405280929190818152602001828054610c709061278a565b8015610cbd5780601f10610c9257610100808354040283529160200191610cbd565b820191906000526020600020905b815481529060010190602001808311610ca057829003601f168201915b5050505050905080915050919050565b600080610cda6007611379565b9050610ce68482611616565b610cf081846117f0565b610cfa600761181c565b8091505092915050565b6000600560008473ffffffffffffffffffffffffffffffffffffffff1673ffffffffffffffffffffffffffffffffffffffff16815260200190815260200160002060008373ffffffffffffffffffffffffffffffffffffffff1673ffffffffffffffffffffffffffffffffffffffff16815260200190815260200160002060009054906101000a900460ff16905092915050565b610da0610f73565b73ffffffffffffffffffffffffffffffffffffffff16610dbe610aa6565b73ffffffffffffffffffffffffffffffffffffffff1614610e14576040517f08c379a0000000000000000000000000000000000000000000000000000000008152600401610e0b906124c6565b60405180910390fd5b600073ffffffffffffffffffffffffffffffffffffffff168173ffffffffffffffffffffffffffffffffffffffff161415610e84576040517f08c379a0000000000000000000000000000000000000000000000000000000008152600401610e7b90612346565b60405180910390fd5b610e8d81611387565b50565b6000803090508091505090565b60007f01ffc9a7000000000000000000000000000000000000000000000000000000007bffffffffffffffffffffffffffffffffffffffffffffffffffffffff1916827bffffffffffffffffffffffffffffffffffffffffffffffffffffffff1916149050919050565b60008073ffffffffffffffffffffffffffffffffffffffff166002600084815260200190815260200160002060009054906101000a900473ffffffffffffffffffffffffffffffffffffffff1673ffffffffffffffffffffffffffffffffffffffff1614159050919050565b600033905090565b816004600083815260200190815260200160002060006101000a81548173ffffffffffffffffffffffffffffffffffffffff021916908373ffffffffffffffffffffffffffffffffffffffff160217905550808273ffffffffffffffffffffffffffffffffffffffff16610fee836108b4565b73ffffffffffffffffffffffffffffffffffffffff167f8c5be1e5ebec7d5bd14f71427d1e84f3dd0314c0f7b2291e5b200ac8c7c3b92560405160405180910390a45050565b600061103f82610f07565b61107e576040517f08c379a0000000000000000000000000000000000000000000000000000000008152600401611075906123e6565b60405180910390fd5b6000611089836108b4565b90508073ffffffffffffffffffffffffffffffffffffffff168473ffffffffffffffffffffffffffffffffffffffff1614806110cb57506110ca8185610d04565b5b8061110957508373ffffffffffffffffffffffffffffffffffffffff166110f184610532565b73ffffffffffffffffffffffffffffffffffffffff16145b91505092915050565b8273ffffffffffffffffffffffffffffffffffffffff16611132826108b4565b73ffffffffffffffffffffffffffffffffffffffff1614611188576040517f08c379a000000000000000000000000000000000000000000000000000000000815260040161117f90612366565b60405180910390fd5b600073ffffffffffffffffffffffffffffffffffffffff168273ffffffffffffffffffffffffffffffffffffffff1614156111f8576040517f08c379a00000000000000000000000000000000000000000000000000000000081526004016111ef906123a6565b60405180910390fd5b611203838383611832565b61120e600082610f7b565b6001600360008573ffffffffffffffffffffffffffffffffffffffff1673ffffffffffffffffffffffffffffffffffffffff168152602001908152602001600020600082825461125e91906126a0565b925050819055506001600360008473ffffffffffffffffffffffffffffffffffffffff1673ffffffffffffffffffffffffffffffffffffffff16815260200190815260200160002060008282546112b5919061264a565b92505081905550816002600083815260200190815260200160002060006101000a81548173ffffffffffffffffffffffffffffffffffffffff021916908373ffffffffffffffffffffffffffffffffffffffff160217905550808273ffffffffffffffffffffffffffffffffffffffff168473ffffffffffffffffffffffffffffffffffffffff167fddf252ad1be2c89b69c2b068fc378daa952ba7f163c4a11628f55a4df523b3ef60405160405180910390a4611374838383611837565b505050565b600081600001549050919050565b6000600660009054906101000a900473ffffffffffffffffffffffffffffffffffffffff16905081600660006101000a81548173ffffffffffffffffffffffffffffffffffffffff021916908373ffffffffffffffffffffffffffffffffffffffff1602179055508173ffffffffffffffffffffffffffffffffffffffff168173ffffffffffffffffffffffffffffffffffffffff167f8be0079c531659141344cd1fd0a4f28419497f9722a3daafe3b4186f6b6457e060405160405180910390a35050565b8173ffffffffffffffffffffffffffffffffffffffff168373ffffffffffffffffffffffffffffffffffffffff1614156114bc576040517f08c379a00000000000000000000000000000000000000000000000000000000081526004016114b3906123c6565b60405180910390fd5b80600560008573ffffffffffffffffffffffffffffffffffffffff1673ffffffffffffffffffffffffffffffffffffffff16815260200190815260200160002060008473ffffffffffffffffffffffffffffffffffffffff1673ffffffffffffffffffffffffffffffffffffffff16815260200190815260200160002060006101000a81548160ff0219169083151502179055508173ffffffffffffffffffffffffffffffffffffffff168373ffffffffffffffffffffffffffffffffffffffff167f17307eab39ab6107e8899845ad3d59bd9653f200f220920489ca2b5937696c31836040516115ad91906122e9565b60405180910390a3505050565b6115c5848484611112565b6115d18484848461183c565b611610576040517f08c379a000000000000000000000000000000000000000000000000000000000815260040161160790612326565b60405180910390fd5b50505050565b600073ffffffffffffffffffffffffffffffffffffffff168273ffffffffffffffffffffffffffffffffffffffff161415611686576040517f08c379a000000000000000000000000000000000000000000000000000000000815260040161167d90612486565b60405180910390fd5b61168f81610f07565b156116cf576040517f08c379a00000000000000000000000000000000000000000000000000000000081526004016116c690612386565b60405180910390fd5b6116db60008383611832565b6001600360008473ffffffffffffffffffffffffffffffffffffffff1673ffffffffffffffffffffffffffffffffffffffff168152602001908152602001600020600082825461172b919061264a565b92505081905550816002600083815260200190815260200160002060006101000a81548173ffffffffffffffffffffffffffffffffffffffff021916908373ffffffffffffffffffffffffffffffffffffffff160217905550808273ffffffffffffffffffffffffffffffffffffffff16600073ffffffffffffffffffffffffffffffffffffffff167fddf252ad1be2c89b69c2b068fc378daa952ba7f163c4a11628f55a4df523b3ef60405160405180910390a46117ec60008383611837565b5050565b80600860008481526020019081526020016000209080519060200190611817929190611a17565b505050565b6001816000016000828254019250508190555050565b505050565b505050565b600061185d8473ffffffffffffffffffffffffffffffffffffffff166119d3565b156119c6578373ffffffffffffffffffffffffffffffffffffffff1663150b7a02611886610f73565b8786866040518563ffffffff1660e01b81526004016118a8949392919061227b565b602060405180830381600087803b1580156118c257600080fd5b505af19250505080156118f357506040513d601f19601f820116820180604052508101906118f09190611e17565b60015b611976573d8060008114611923576040519150601f19603f3d011682016040523d82523d6000602084013e611928565b606091505b5060008151141561196e576040517f08c379a000000000000000000000000000000000000000000000000000000000815260040161196590612326565b60405180910390fd5b805181602001fd5b63150b7a0260e01b7bffffffffffffffffffffffffffffffffffffffffffffffffffffffff1916817bffffffffffffffffffffffffffffffffffffffffffffffffffffffff1916149150506119cb565b600190505b949350505050565b6000808273ffffffffffffffffffffffffffffffffffffffff163b119050919050565b60405180606001604052806000815260200160608152602001606081525090565b828054611a239061278a565b90600052602060002090601f016020900481019282611a455760008555611a8c565b82601f10611a5e57805160ff1916838001178555611a8c565b82800160010185558215611a8c579182015b82811115611a8b578251825591602001919060010190611a70565b5b509050611a999190611a9d565b5090565b5b80821115611ab6576000816000905550600101611a9e565b5090565b6000611acd611ac884612566565b612541565b905082815260208101848484011115611ae557600080fd5b611af0848285612748565b509392505050565b6000611b0b611b0684612597565b612541565b905082815260208101848484011115611b2357600080fd5b611b2e848285612748565b509392505050565b600081359050611b4581612d2c565b92915050565b600081359050611b5a81612d43565b92915050565b600081359050611b6f81612d5a565b92915050565b600081519050611b8481612d5a565b92915050565b600082601f830112611b9b57600080fd5b8135611bab848260208601611aba565b91505092915050565b600082601f830112611bc557600080fd5b8135611bd5848260208601611af8565b91505092915050565b600081359050611bed81612d71565b92915050565b600060208284031215611c0557600080fd5b6000611c1384828501611b36565b91505092915050565b60008060408385031215611c2f57600080fd5b6000611c3d85828601611b36565b9250506020611c4e85828601611b36565b9150509250929050565b600080600060608486031215611c6d57600080fd5b6000611c7b86828701611b36565b9350506020611c8c86828701611b36565b9250506040611c9d86828701611bde565b9150509250925092565b60008060008060808587031215611cbd57600080fd5b6000611ccb87828801611b36565b9450506020611cdc87828801611b36565b9350506040611ced87828801611bde565b925050606085013567ffffffffffffffff811115611d0a57600080fd5b611d1687828801611b8a565b91505092959194509250565b60008060408385031215611d3557600080fd5b6000611d4385828601611b36565b9250506020611d5485828601611b4b565b9150509250929050565b60008060408385031215611d7157600080fd5b6000611d7f85828601611b36565b925050602083013567ffffffffffffffff811115611d9c57600080fd5b611da885828601611bb4565b9150509250929050565b60008060408385031215611dc557600080fd5b6000611dd385828601611b36565b9250506020611de485828601611bde565b9150509250929050565b600060208284031215611e0057600080fd5b6000611e0e84828501611b60565b91505092915050565b600060208284031215611e2957600080fd5b6000611e3784828501611b75565b91505092915050565b600060208284031215611e5257600080fd5b6000611e6084828501611bde565b91505092915050565b6000611e7583836121eb565b905092915050565b611e86816126d4565b82525050565b6000611e97826125d8565b611ea18185612606565b935083602082028501611eb3856125c8565b8060005b85811015611eef5784840389528151611ed08582611e69565b9450611edb836125f9565b925060208a01995050600181019050611eb7565b50829750879550505050505092915050565b611f0a816126e6565b82525050565b6000611f1b826125e3565b611f258185612617565b9350611f35818560208601612757565b611f3e816128c3565b840191505092915050565b6000611f54826125ee565b611f5e8185612628565b9350611f6e818560208601612757565b611f77816128c3565b840191505092915050565b6000611f8d826125ee565b611f978185612639565b9350611fa7818560208601612757565b611fb0816128c3565b840191505092915050565b6000611fc8603283612639565b9150611fd3826128d4565b604082019050919050565b6000611feb602683612639565b9150611ff682612923565b604082019050919050565b600061200e602583612639565b915061201982612972565b604082019050919050565b6000612031601c83612639565b915061203c826129c1565b602082019050919050565b6000612054602483612639565b915061205f826129ea565b604082019050919050565b6000612077601983612639565b915061208282612a39565b602082019050919050565b600061209a602c83612639565b91506120a582612a62565b604082019050919050565b60006120bd602483612639565b91506120c882612ab1565b604082019050919050565b60006120e0603883612639565b91506120eb82612b00565b604082019050919050565b6000612103602a83612639565b915061210e82612b4f565b604082019050919050565b6000612126602983612639565b915061213182612b9e565b604082019050919050565b6000612149602083612639565b915061215482612bed565b602082019050919050565b600061216c602c83612639565b915061217782612c16565b604082019050919050565b600061218f602083612639565b915061219a82612c65565b602082019050919050565b60006121b2602183612639565b91506121bd82612c8e565b604082019050919050565b60006121d5603183612639565b91506121e082612cdd565b604082019050919050565b60006060830160008301516122036000860182612242565b506020830151848203602086015261221b8282611f49565b915050604083015184820360408601526122358282611f49565b9150508091505092915050565b61224b8161273e565b82525050565b61225a8161273e565b82525050565b60006020820190506122756000830184611e7d565b92915050565b60006080820190506122906000830187611e7d565b61229d6020830186611e7d565b6122aa6040830185612251565b81810360608301526122bc8184611f10565b905095945050505050565b600060208201905081810360008301526122e18184611e8c565b905092915050565b60006020820190506122fe6000830184611f01565b92915050565b6000602082019050818103600083015261231e8184611f82565b905092915050565b6000602082019050818103600083015261233f81611fbb565b9050919050565b6000602082019050818103600083015261235f81611fde565b9050919050565b6000602082019050818103600083015261237f81612001565b9050919050565b6000602082019050818103600083015261239f81612024565b9050919050565b600060208201905081810360008301526123bf81612047565b9050919050565b600060208201905081810360008301526123df8161206a565b9050919050565b600060208201905081810360008301526123ff8161208d565b9050919050565b6000602082019050818103600083015261241f816120b0565b9050919050565b6000602082019050818103600083015261243f816120d3565b9050919050565b6000602082019050818103600083015261245f816120f6565b9050919050565b6000602082019050818103600083015261247f81612119565b9050919050565b6000602082019050818103600083015261249f8161213c565b9050919050565b600060208201905081810360008301526124bf8161215f565b9050919050565b600060208201905081810360008301526124df81612182565b9050919050565b600060208201905081810360008301526124ff816121a5565b9050919050565b6000602082019050818103600083015261251f816121c8565b9050919050565b600060208201905061253b6000830184612251565b92915050565b600061254b61255c565b905061255782826127bc565b919050565b6000604051905090565b600067ffffffffffffffff82111561258157612580612894565b5b61258a826128c3565b9050602081019050919050565b600067ffffffffffffffff8211156125b2576125b1612894565b5b6125bb826128c3565b9050602081019050919050565b6000819050602082019050919050565b600081519050919050565b600081519050919050565b600081519050919050565b6000602082019050919050565b600082825260208201905092915050565b600082825260208201905092915050565b600082825260208201905092915050565b600082825260208201905092915050565b60006126558261273e565b91506126608361273e565b9250827fffffffffffffffffffffffffffffffffffffffffffffffffffffffffffffffff0382111561269557612694612836565b5b828201905092915050565b60006126ab8261273e565b91506126b68361273e565b9250828210156126c9576126c8612836565b5b828203905092915050565b60006126df8261271e565b9050919050565b60008115159050919050565b60007fffffffff0000000000000000000000000000000000000000000000000000000082169050919050565b600073ffffffffffffffffffffffffffffffffffffffff82169050919050565b6000819050919050565b82818337600083830152505050565b60005b8381101561277557808201518184015260208101905061275a565b83811115612784576000848401525b50505050565b600060028204905060018216806127a257607f821691505b602082108114156127b6576127b5612865565b5b50919050565b6127c5826128c3565b810181811067ffffffffffffffff821117156127e4576127e3612894565b5b80604052505050565b60006127f88261273e565b91507fffffffffffffffffffffffffffffffffffffffffffffffffffffffffffffffff82141561282b5761282a612836565b5b600182019050919050565b7f4e487b7100000000000000000000000000000000000000000000000000000000600052601160045260246000fd5b7f4e487b7100000000000000000000000000000000000000000000000000000000600052602260045260246000fd5b7f4e487b7100000000000000000000000000000000000000000000000000000000600052604160045260246000fd5b6000601f19601f8301169050919050565b7f4552433732313a207472616e7366657220746f206e6f6e20455243373231526560008201527f63656976657220696d706c656d656e7465720000000000000000000000000000602082015250565b7f4f776e61626c653a206e6577206f776e657220697320746865207a65726f206160008201527f6464726573730000000000000000000000000000000000000000000000000000602082015250565b7f4552433732313a207472616e736665722066726f6d20696e636f72726563742060008201527f6f776e6572000000000000000000000000000000000000000000000000000000602082015250565b7f4552433732313a20746f6b656e20616c7265616479206d696e74656400000000600082015250565b7f4552433732313a207472616e7366657220746f20746865207a65726f2061646460008201527f7265737300000000000000000000000000000000000000000000000000000000602082015250565b7f4552433732313a20617070726f766520746f2063616c6c657200000000000000600082015250565b7f4552433732313a206f70657261746f7220717565727920666f72206e6f6e657860008201527f697374656e7420746f6b656e0000000000000000000000000000000000000000602082015250565b7f55524920646f6573206e6f7420657869737420666f72207468617420746f6b6560008201527f6e20494400000000000000000000000000000000000000000000000000000000602082015250565b7f4552433732313a20617070726f76652063616c6c6572206973206e6f74206f7760008201527f6e6572206e6f7220617070726f76656420666f7220616c6c0000000000000000602082015250565b7f4552433732313a2062616c616e636520717565727920666f7220746865207a6560008201527f726f206164647265737300000000000000000000000000000000000000000000602082015250565b7f4552433732313a206f776e657220717565727920666f72206e6f6e657869737460008201527f656e7420746f6b656e0000000000000000000000000000000000000000000000602082015250565b7f4552433732313a206d696e7420746f20746865207a65726f2061646472657373600082015250565b7f4552433732313a20617070726f76656420717565727920666f72206e6f6e657860008201527f697374656e7420746f6b656e0000000000000000000000000000000000000000602082015250565b7f4f776e61626c653a2063616c6c6572206973206e6f7420746865206f776e6572600082015250565b7f4552433732313a20617070726f76616c20746f2063757272656e74206f776e6560008201527f7200000000000000000000000000000000000000000000000000000000000000602082015250565b7f4552433732313a207472616e736665722063616c6c6572206973206e6f74206f60008201527f776e6572206e6f7220617070726f766564000000000000000000000000000000602082015250565b612d35816126d4565b8114612d4057600080fd5b50565b612d4c816126e6565b8114612d5757600080fd5b50565b612d63816126f2565b8114612d6e57600080fd5b50565b612d7a8161273e565b8114612d8557600080fd5b5056fea2646970667358221220bc9cafb112bdbf8feddab63836282dc08a17f29d46e4e93f61555743d6b6955864736f6c63430008020033",
  "linkReferences": {},
  "deployedLinkReferences": {}
}